:020000040800F2
:1000000000000220BD0100088D0600088F060008D0
:1000100091060008930600089506000800000000FD
:10002000000000000000000000000000970600082B
:1000300099060008000000009B0600089D060008C5
:100040000D0200080D0200080D0200080D02000854
:100050000D0200080D0200080D0200080D02000844
:100060000D0200080D0200080D0200080D02000834
:100070000D0200080D0200080D0200080D02000824
:100080000D0200080D0200080D0200080D02000814
:100090000D0200080D0200080D0200080D02000804
:1000A0000D0200080D0200080D0200080D020008F4
:1000B0000D0200080D0200080D0200080D020008E4
:1000C0000D0200080D0200080D0200080D020008D4
:1000D0000D0200080D0200080D0200080D020008C4
:1000E0000D0200080D0200080D0200080D020008B4
:1000F0000D0200080D0200080D0200080D020008A4
:100100000D0200080D0200080D0200080D02000893
:100110000D0200080D0200080D0200080D02000883
:100120000D0200080D0200080D0200080D02000873
:100130000D0200080D0200080D0200080D02000863
:100140000D0200080D0200080D0200080D02000853
:100150000D0200080D0200080D0200080D02000843
:100160000D0200080D0200080D0200080D02000833
:100170000D0200080D0200080D020008000000003A
:080180000D0200080D02000849
:1001880053B94AB9002908BF00281CBF4FF0FF31F6
:100198004FF0FF3000F00CB8ADF1080C6DE904CE5B
:1001A80001F07CF8DDF804E0DDE9022304B07047D3
:1001B800704700BF0D4885460D480E490E4A00237A
:1001C800C4188C4200D303E0D458C4500433F7E772
:1001D8000A4A0B4C0023A24200D302E01360043207
:1001E800F9E700F05BFA00F06FF9FEE70000022083
:1001F800000000200C000020E41500080C0000207E
:10020800F8000020FEE700002DE9F0478CB007ADAC
:1002180000240794089409940A940B9400944E4B74
:100228001A6B42F010021A631A6B02F01002009265
:10023800009A01941A6B42F020021A631A6B02F0BA
:1002480020020192019A02941A6B42F080021A630A
:100258001A6B02F080020292029A03941A6B42F01F
:1002680001021A631A6B02F001020392039A0494C2
:100278001A6B42F040021A631A6B02F040020492B1
:10028800049A05941A6B42F008021A631A6B02F07A
:1002980008020592059A06941A6B42F002021A6344
:1002A8001B6B03F002030693069BDFF8B8A02246F7
:1002B8006021504600F0AEFB284F22464FF4A06163
:1002C800384600F0A7FBDFF8A090224640214846B8
:1002D80000F0A0FBDFF8948022460821404600F099
:1002E80099FB602307930126089609940A942946E6
:1002F800504600F099FA4FF4A063079308960994C2
:100308000A942946384600F08FFA4FF40073079391
:10031800089409942946384600F086FA4023079342
:10032800089609940A942946484600F07DFA08235D
:100338000793089609940A942946404600F074FAEF
:1003480010230793089409942946054800F06CFA8D
:100358000CB0BDE8F08700BF00380240001402402E
:10036800000402400010024000180240000C024045
:1003780072B6FEE708B50D480D4B03604FF4827363
:10038800436000238360C360036143614FF40072DC
:100398008261C3610362436283620A23C36200F01D
:1003A80065FE00B908BDFFF7E3FF00BF9C00002011
:1003B8000030014008B50A480A4B03604FF4E133A6
:1003C800436000238360C36003610C224261836140
:1003D800C36100F033FF00B908BDFFF7C9FF00BFD4
:1003E800540000200010014008B50A480A4B036079
:1003F8004FF4E133436000238360C36003610C2240
:1004080042618361C36100F019FF00B908BDFFF7BD
:10041800AFFF00BF0C0000200044004010B594B0AE
:1004280008AC30220021204601F0B4F800230393E1
:1004380004930593069307930193214A116C41F0A5
:1004480080511164126C02F080520192019A029359
:100458001C4B1A6842F480421A601B6803F48043FC
:100468000293029B012308934FF4803309930223DC
:100478000E934FF480020F92082210924FF4A87244
:100488001192129307231393204600F0C9FA90B9EA
:100498000F23039302230493002305934FF4A053DF
:1004A80006934FF480530793052103A800F008FD35
:1004B80018B914B010BDFFF75BFFFFF759FF00BF75
:1004C800003802400070004008B500F017F9FFF747
:1004D800A5FFFFF799FEFFF74DFFFFF76BFFFFF74B
:1004E80083FFFEE782B0002100910B4B5A6C42F467
:1004F80080425A645A6C02F480420092009A019138
:100508001A6C42F080521A641B6C03F080530193FA
:10051800019B02B0704700BF003802402DE9F0414E
:1005280088B0002303930493059306930793026806
:10053800204B9A4202D008B0BDE8F0810024009414
:1005480003F584335A6C42F480525A645A6C02F4AC
:1005580080520092009A01941A6B42F001021A63C9
:100568001A6B02F001020192019A02941A6B42F08E
:1005780002021A631B6B03F002030293029B4023DF
:1005880003934FF00208CDF810800327069705263D
:10059800079603AD2946084800F046F92823039337
:1005A800CDF810800594069707962946034800F071
:1005B8003BF9C0E70030014000000240000402405F
:1005C80000B58BB00023059306930793089309930E
:1005D8000368284A934205D0274A934226D00BB095
:1005E8005DF804FB00210191244B5A6C42F0100283
:1005F8005A645A6C02F010020192019A02911A6B25
:1006080042F001021A631B6B03F001030293029B81
:100618004FF4C0630593022306930323089307232B
:10062800099305A9164800F0FFF8D8E700210391BF
:10063800124B1A6C42F400321A641A6C02F400323B
:100648000392039A04911A6B42F001021A631B6B1E
:1006580003F001030493049B0C23059302230693E0
:10066800032308930723099305A9054800F0DCF83C
:10067800B5E700BF001001400044004000380240C8
:1006880000000240FEE7FEE7FEE7FEE7FEE77047F0
:100698007047704708B500F04BF808BD034AD2F818
:1006A800883043F47003C2F88830704700ED00E0EA
:1006B80010B504460E4B1A784FF47A73B3FBF2F375
:1006C8000C4A1068B0FBF3F000F09AF868B90F2CE8
:1006D80001D901200AE0002221464FF0FF3000F046
:1006E8007FF8054B1C60002000E0012010BD00BF12
:1006F80004000020000000200800002008B50B4B73
:100708001A6842F400721A601A6842F480621A6029
:100718001A6842F480721A60032000F04FF80F2024
:10072800FFF7C6FFFFF7DEFE002008BD003C0240D1
:10073800034A1168034B1B780B441360704700BFD2
:10074800F400002004000020014B1868704700BF27
:10075800F4000020002808DB0901C9B200F160405C
:1007680000F5614080F80013704700F00F000901A0
:10077800C9B2014B1954704714ED00E000B500F000
:100788000700C0F1070CBCF1040F28BF4FF0040CA0
:10079800031D062B0FD9C31E4FF0FF3E0EFA0CF0B7
:1007A80021EA000199400EFA03FE22EA0E0241EA0C
:1007B80002005DF804FB0023EEE70000074AD36857
:1007C80023F4E0631B041B0C000200F4E060034305
:1007D80043F0BF6343F40033D360704700ED00E09B
:1007E80010B50446054BD868C0F30220FFF7C6FFD2
:1007F80001462046FFF7AEFF10BD00BF00ED00E048
:100808000138B0F1807F0BD24FF0E0235861054AE0
:10081800F02182F823100020986107221A6170479E
:100828000120704700ED00E000230F2B00F2E98063
:1008380070B582B065E085684FEA430E032404FA78
:100848000EF425EA0405CC6804FA0EF42C438460FF
:10085800446824EA02044A68C2F300129A40224318
:1008680042605CE0DC08083450F8242003F00705F7
:10087800AD004FF00F0E0EFA05FE22EA0E0E0A69C1
:10088800AA4042EA0E0240F824205CE0072200E079
:10089800002202FA0EF22A4302345A4D45F8242067
:1008A800594A94686FEA0C0224EA0C054E6816F45B
:1008B800801F01D04CEA0405534CA560E46802EAA5
:1008C80004054E6816F4001F01D04CEA04054E4C8E
:1008D800E560646802EA04054E6816F4003F01D03A
:1008E8004CEA0405484C6560246822404D6815F4BC
:1008F800803F01D04CEA0402434C226001330F2BA5
:100908007DD801229A400C6804EA020C32EA0404F9
:10091800F4D14C6804F00304013C012C8BD94A68DB
:1009280002F00302032A09D0C4685D000322AA402A
:1009380024EA02048A68AA402243C2604A6802F094
:100948000302022A8ED004684FEA430E032202FAF9
:100958000EF224EA02044A6802F0030202FA0EF2D6
:10096800224302604A6812F4403FC7D00022019235
:10097800264A546C44F480445464526C02F4804215
:100988000192019A9C08A51C1E4A52F8255003F0B2
:10099800030E4FEA8E0E0F2202FA0EF225EA020526
:1009A8001B4A90423FF474AF02F5806290421AD01D
:1009B80002F58062904218D002F58062904216D00B
:1009C80002F58062904214D002F58062904212D003
:1009D80002F58062904210D002F5806290423FF4A6
:1009E80055AF082255E7012253E7022251E70322B7
:1009F8004FE704224DE705224BE7062249E702B0FC
:100A080070BD704700380140003C0140003802408A
:100A1800000002400AB18161704709048161704792
:100A2800002800F0E08170B582B00446036813F036
:100A3800010F3BD09F4B9B6803F00C03042B2CD079
:100A48009C4B9B6803F00C03082B21D06368B3F51B
:100A5800803F4FD0B3F5A02F52D0964B1A6822F49E
:100A680080321A601A6822F480221A606368002BA8
:100A780050D0FFF769FE05468E4B1B6813F4003F04
:100A880014D1FFF761FE401B6428F5D90320B1E1BA
:100A9800884B5B6813F4800FD8D0864B1B6813F41F
:100AA800003F03D06368002B00F09F81236813F098
:100AB800020F54D07F4B9B6813F00C0F3ED07D4B38
:100AC8009B6803F00C03082B33D0E368002B68D035
:100AD800794B01221A60FFF737FE0546754B1B68F4
:100AE80013F0020F54D1FFF72FFE401B0228F5D94F
:100AF80003207FE16F4A136843F480331360B5E73E
:100B08006C4B1A6842F480221A601A6842F48032E8
:100B18001A60ABE7FFF718FE0546664B1B6813F42F
:100B2800003FC3D0FFF710FE401B6428F5D903200F
:100B380060E1604B5B6813F4800FC6D15D4B1B68A6
:100B480013F0020F03D0E368012B40F05081594A9B
:100B5800136823F0F803216943EAC103136023688B
:100B680013F0080F42D063696BB3534B0122C3F8EB
:100B7800802EFFF7E9FD05464E4B5B6F13F0020F21
:100B880034D1FFF7E1FD401B0228F5D9032031E1FC
:100B9800484A136823F0F803216943EAC103136044
:100BA800DDE7454B00221A60FFF7CEFD0546414BB5
:100BB8001B6813F0020FD2D0FFF7C6FD401B0228B6
:100BC800F5D9032016E13C4B0022C3F8802EFFF72D
:100BD800BBFD0546374B5B6F13F0020F06D0FFF7DE
:100BE800B3FD401B0228F5D9032003E1236813F065
:100BF800040F77D02F4B1B6C13F0805F33D1002389
:100C080001932C4B1A6C42F080521A641B6C03F04F
:100C180080530193019B0125284B1B6813F4807FA7
:100C280023D0A368012B34D0052B38D0214B1A6F61
:100C380022F001021A671A6F22F004021A67A368E9
:100C4800002B3DD0FFF780FD06461A4B1B6F13F0B3
:100C5800020F46D1FFF778FD801B41F28833984296
:100C6800F3D90320C6E00025D6E7144A136843F4F5
:100C780080731360FFF768FD0646104B1B6813F47A
:100C8800807FCED1FFF760FD801B0228F5D90320B5
:100C9800B0E0084A136F43F001031367CFE7054B31
:100CA8001A6F42F004021A671A6F42F001021A67BB
:100CB800C5E700BF0038024000004742007000400E
:100CC800FFF742FD0646524B1B6F13F0020F08D088
:100CD800FFF73AFD801B41F288339842F3D903208D
:100CE80088E0EDB9A369002B00F08380484A926838
:100CF80002F00C02082A51D0022B17D0454B0022D3
:100D08001A66FFF721FD0446414B1B6813F0007F6C
:100D180042D0FFF719FD001B0228F5D9032069E02E
:100D28003B4A136C23F080531364DBE7394B0022F2
:100D38001A66FFF709FD0546354B1B6813F0007F5F
:100D480006D0FFF701FD401B0228F5D9032051E02A
:100D5800E369226A1343626A43EA8213A26A520869
:100D6800013A43EA0243E26A43EA0263284A5360CB
:100D7800284B01221A66FFF7E7FC0446244B1B6840
:100D880013F0007F06D1FFF7DFFC001B0228F5D91E
:100D980003202FE000202DE000202BE0012B2BD09A
:100DA8001B4B5B6803F48001E269914226D103F092
:100DB8003F02216A8A4223D1616A47F6C0721A400B
:100DC800B2EB811F1ED103F44031A26A5208013AE6
:100DD800B1EB024F18D103F07063E26AB3EB026F14
:100DE80014D1002006E001207047012002E0012014
:100DF80000E0002002B070BD0120FBE70120F9E708
:100E08000120F7E70120F5E70120F3E70120F1E7EA
:100E1800003802400000474208B5264B9B6803F0A3
:100E28000C03042B41D0082B41D1224B5A6802F005
:100E38003F025B6813F4800F12D01E4B5968C1F350
:100E480088111D480023A1FB0001FFF799F9194BF0
:100E58005B68C3F3014301335B00B0FBF3F008BDEB
:100E6800144B5868C0F388104FEA401CBCEB000CC8
:100E78006EEB0E0E4FEA8E1343EA9C634FEA8C1119
:100E8800B1EB0C0163EB0E03DB0043EA5173C900BD
:100E980011EB000C43F10003990200234FEA8C2068
:100EA80041EA9C51FFF76CF9D1E70348D7E70348BB
:100EB800D5E700BF0038024040787D010024F400E7
:100EC800002800F09B8070B50D4604464F4B1B6808
:100ED80003F007038B4208D2CBB24C4A1370136855
:100EE80003F007038B4240F08B80236813F0020F56
:100EF80017D013F0040F04D0454A936843F4E05325
:100F08009360236813F0080F04D0414A936843F4B0
:100F1800604393603E4A936823F0F003A1680B4353
:100F28009360236813F0010F32D06368012B21D03E
:100F38009A1E012A25D9364A126812F0020F61D08A
:100F480033498A6822F0030213438B60FFF7FCFBE6
:100F580006462F4B9B6803F00C036268B3EB820FC5
:100F680016D0FFF7F1FB801B41F288339842F0D985
:100F7800032042E0264A126812F4003FE0D1012023
:100F88003BE0234A126812F0007FD9D1012034E0F7
:100F98001E4B1B6803F00703AB4207D9EAB21B4B91
:100FA8001A701B6803F00703AB422DD1236813F0B6
:100FB800040F06D0164A936823F4E053E1680B4304
:100FC8009360236813F0080F07D0114A936823F43D
:100FD8006043216943EAC1039360FFF71DFF0C4B8F
:100FE8009B68C3F303130B4AD35CD8400A4B1860C1
:100FF8000A4B1868FFF75CFB002070BD01207047A2
:101008000120FAE70120F8E70120F6E7003C02405A
:1010180000380240CC15000800000020080000201D
:10102800014B1868704700BF0000002008B5FFF7A3
:10103800F7FF044B9B68C3F38223034AD35CD84071
:1010480008BD00BF00380240C415000808B5FFF706
:10105800E7FF044B9B68C3F34233034AD35CD84091
:1010680008BD00BF00380240C415000800285AD047
:1010780010B50446436A33B94368B3F5827F05D097
:101088000023C36102E00023036143610023A362DC
:1010980094F85130002B40D0022384F85130226854
:1010A800136823F040031360636803F48273A26833
:1010B80002F404421343E26802F400621343226913
:1010C80002F002021343626902F001021343A269AB
:1010D80002F400721343E26902F038021343226AF1
:1010E80002F080021343A26A02F4005221681343FB
:1010F8000B60638B03F00403626A02F0100221683C
:1011080013434B602268D36923F40063D361002042
:101118006065012384F8513010BD84F850302046B2
:10112800FFF7FCF9B8E701207047000010B5044646
:101138000268136923F44053C1680B431361836841
:1011480002691A4343691A43C3691A430168CB68A1
:1011580023F4164323F00C031343CB60026853694E
:1011680023F4407381690B4353610368314A934206
:1011780006D002F58062934202D0FFF757FF01E0E4
:10118800FFF764FFE369B3F5004F29D00021031886
:1011980049411B1841F10001C90041EA5371DB00C4
:1011A800181863684FEA83024FEA937341F100010C
:1011B800FEF7E6FF204AA2FB00314909642303FB3E
:1011C80011031B013233A2FB03235B0903F0F00276
:1011D80002EB011203F00F03216813448B6010BD6A
:1011E8000023021843EB0301121841F10001C90062
:1011F80041EA5271D200101841F100016268921858
:101208005B41FEF7BDFF0C4AA2FB0031490964238C
:1012180003FB1103DB003233A2FB03235B095A00F3
:1012280002F4F87202EB011203F007032168134479
:101238008B60D4E7001001401F85EB5160B310B5F7
:10124800044690F8413013B3242384F841302268CF
:10125800D36823F40053D3602046FFF767FF226862
:10126800136923F4904313612268536923F02A0316
:1012780053612268D36843F40053D360002060644C
:10128800202384F8413084F84230606310BD80F830
:101298004030FFF795F9D7E7012070472DE9F0476F
:1012A800089D0F4604468C46002B48D18A421646B4
:1012B80061D9B2FA82F34BB1C3F1200201FA03FCFF
:1012C80020FA02F29E4042EA0C0C9C404FEA164E6D
:1012D800B7B2BCFBFEF1220C0EFB11CC42EA0C4269
:1012E80001FB07F0904209D9B21801F1FF3C80F0E8
:1012F800EE80904240F2EB8002393244121AA4B2D6
:10130800B2FBFEF00EFB102244EA024400FB07F792
:10131800A74209D9341900F1FF3280F0DA80A742D8
:1013280040F2D7803444023840EA0140E41B0021EF
:101338001DB1DC400023C5E90043BDE8F0878B42BE
:1013480006D90DB1C5E9000100210846BDE8F087BE
:10135800B3FA83F1002948D1BB4202D3824200F29A
:101368000781841A67EB030201209446002DE4D01C
:10137800C5E9004CE1E7002A00F09280B2FA82F356
:10138800002B40F0A8808A1A4FEA164E1FFA86FCF6
:101398000121200CB2FBFEF70EFB172240EA0242A5
:1013A8000CFB07F0904207D9B21807F1FF3802D2B8
:1013B800904200F2E2804746121AA4B2B2FBFEF055
:1013C8000EFB102244EA02440CFB00FCA44507D99A
:1013D800341900F1FF3202D2A44500F2CB80104646
:1013E800A4EB0C0440EA0740A2E7C1F120068B40B9
:1013F80022FA06FC4CEA030C07FA01F420FA06F379
:10140800F7404FEA1C49234300FA01F81FFA8CFE03
:10141800B7FBF9F01C0C09FB107744EA074400FB02
:101428000EF7A74202FA01F20AD91CEB040400F1F4
:10143800FF3A80F09B80A74240F2988002386444CB
:10144800E41B9FB2B4FBF9F309FB134447EA0444D5
:1014580003FB0EFEA64509D91CEB040403F1FF3774
:1014680080F08280A6457FD9023B644443EA00406D
:10147800A4EB0E04A0FB02E7BC427346B94663D353
:1014880060D05DB1B8EB030264EB090404FA06F618
:1014980022FA01F31E43CC40C5E9006400214CE761
:1014A8006208480842EAC1710B0C43EA00438AB259
:1014B80042EA0342B3FBF6F1E407B4463746B646C0
:1014C8001F23B0FBF6F0D21B41EA004161E76146F9
:1014D80014E7104628E7C3F1200120FA01F29E40E4
:1014E80027FA01F19F403A434FEA164E1FFA86FC4D
:1014F800B1FBFEF70EFB1710110C41EA004107FB88
:101508000CF8884504FA03F43AD9711807F1FF304A
:1015180001D288451FD8A1EB0801B1FBFEF808FBF2
:101528000CF70EFB181192B242EA0142BA422FD2CE
:10153800B21808F1FF31C6D2BA42C4D2A8F10201EA
:101548003244C0E7F0459CD2BEEB020367EB0C07C0
:101558000138B94695E7A6EB08084144B81EB1FB27
:10156800FEF808FB0CF7DCE73B467FE7504667E7E9
:101578000846FBE63444023832E7023F32441BE7B0
:10158800A1EB08013846B1FBFEF808FB0CF7C8E7E9
:10159800414698E702440346934200D1704703F856
:1015A800011BF9E7F8B500BFF8BC08BC9E467047B8
:0C15B800F8B500BFF8BC08BC9E467047A8
:1015C400000000000102030400000000000000000D
:0815D4000102030406070809E7
:0815DC00C8FCFF7F01000000C4
:0C15E4000024F4000100000010000000D2
:04000005080001BD31
:00000001FF
